:100000000C9485000C94AD000C94AD000C94AD00E4
:100010000C94AD000C94AD000C94AD000C94AD00AC
:100020000C94AD000C94AD000C94AD000C94AD009C
:100030000C94AD000C94AD000C94AD000C94AD008C
:100040000C94F3060C94AD000C9414060C94EE057D
:100050000C94AD000C94AD000C94AD000C94AD006C
:100060000C94AD000C94AD0007634236B79BD8A743
:100070001A39685618AEBAAB558C1D3CB7CC5763CD
:10008000BD6DEDFD753EF6177231BF000000803F7B
:100090004E414E494E495459494E46CDCCCC3D0A6D
:1000A000D7233C17B7D13877CC2B329595E6241F50
:1000B000B14F0A000020410000C84200401C462009
:1000C000BCBE4CCA1B0E5AAEC59D74000000002574
:1000D0000028002B0000000000240027002A000454
:1000E00004040404040404020202020202030303DF
:1000F00003030301020408102040800102040810D9
:100100002001020408102000590911241FBECFEF5E
:10011000D8E0DEBFCDBF12E0A0E0B1E0ECE4FDE14D
:1001200002C005900D92AA3BB107D9F723E0AAEBD4
:10013000B2E001C01D92A43DB207E1F710E0C5E8AE
:10014000D0E004C02197FE010E94650EC438D1079B
:10015000C9F70E940F090C94A40E0C9400006CE2E5
:1001600071E08CE293E00E94E4086BE471E08CE2C1
:1001700093E00E94E40865E571E08CE293E00E9460
:10018000E40863E771E08CE293E00E94E4086DE824
:1001900071E08CE293E00E94E40868E971E08CE28F
:1001A00093E00E94E40860EA71E08CE293E00E9430
:1001B000E40863EC71E08CE293E00E94E40864EDF3
:1001C00071E08CE293E00E94E40861EE71E08CE261
:1001D00093E00E94E40860EF71E08CE293E00E94FB
:1001E000E4086CE072E08CE293E00E94E40864E2D0
:1001F00072E08CE293E00E94E4086DE372E08CE22E
:1002000093E00E94E40881E090E00895CF93DF93AB
:10021000EB018230910509F45CC084F40097C1F0D1
:10022000019709F08DC062E572E08CE293E00E94D4
:10023000FA084C815D816E817F8155C084309105C3
:1002400009F463C00CF456C0059709F469C078C07E
:1002500062E572E08CE293E00E94FA084C815D81D5
:100260006E817F812AE030E08CE293E00E94C50835
:100270006BE572E08CE293E00E94FA0848815981B4
:100280006A817B812AE030E08CE293E00E94C5081D
:1002900064E672E08CE293E00E94FA084885598592
:1002A0006A857B852AE030E08CE293E00E94B10809
:1002B00068E672E08CE293E00E94FA084C855D8566
:1002C0006E857F852AE030E08CE293E00E94B108E1
:1002D00027C06BE572E08CE293E00E94FA08488147
:1002E00059816A817B812AE030E08CE293E00E94B0
:1002F000C50826C064E672E08CE293E00E94FA082A
:10030000488559856A857B8515C068E672E08CE270
:1003100093E00E94FA084C855D856E857F850AC052
:100320006CE672E08CE293E00E94FA0848895989F1
:100330006A897B892AE030E08CE293E00E94B10870
:1003400081E090E0DF91CF910895AF92BF92CF927C
:10035000DF92EF92FF920F931F93CF93DF937B0176
:100360006A018C01C0E0D0E0CE15DF05CCF4580165
:10037000F801619171918F018CE293E00E94F8087D
:1003800064E772E08CE293E00E94FA08B601F5019E
:10039000808191810E94940C892B29F02196E4CFD1
:1003A0008FEF9FEF01C0CE01DF91CF911F910F9191
:1003B000FF90EF90DF90CF90BF90AF900895FF92A5
:1003C0000F931F93CF93DF93F82E8B018091DD0263
:1003D0009091DE02853191058CF01092C40210924A
:1003E000DA021092D9021092DE021092DD0260E76A
:1003F00072E08CE293E00E94FA08C5C0C091D90275
:10040000D091DA02C130D10509F43FC0C230D10524
:1004100009F47DC0209709F0B6C0F092C402109292
:10042000C50244EC52E065E070E08AE091E00E9491
:10043000A501D8018D939C934AE050E0BC018CE269
:1004400093E00E948607F80180819181019609F46A
:100450009CC081E090E09093DA028093D902E09111
:10046000DD02F091DE02EC53FD4FF0821092DE02CD
:100470001092DD02D80113961C921E921297F80179
:10048000148215821682178280C0FC01EC53FD4F46
:10049000F0822DE3F2121EC0DB012D913C91213040
:1004A000310579F5108244EC52E065E070E080E0BF
:1004B00091E00E94A5010196F8019383828382E076
:1004C00090E09093DA028093D9021092DC021092AD
:1004D000DB0259C02BE3F21214C0DB012D913C91D9
:1004E0002230310571F0108244EC52E065E070E09A
:1004F00080E091E00E94A5010196F8019383828338
:100500002BC001969093DE028093DD023CC0FC017B
:10051000EC53FD4FF08201969093DE028093DD0252
:10052000FBE3FF1671F08091DB029091DC02FC018D
:10053000E654FD4FF08201969093DC028093DB023B
:1005400022C08AEB92E00E94900CD80114966D9321
:100550007D938D939C93179767E772E08CE293E00D
:100560000E94FA081092C4021092DA021092D90284
:100570001092DE021092DD021092DC021092DB0279
:10058000C1E0D0E002C0C0E0D0E0CE01DF91CF9169
:100590001F910F91FF90089561E08DE00E94AB06DE
:1005A00026E040E855E260E070E08CE293E00E94D3
:1005B0004606EBE0F3E080E090E0A0E2B1E4808367
:1005C0009183A283B38384839583A683B783808733
:1005D0009187A287B387E3E0F3E088EE93E0A0E0A1
:1005E000B0E080839183A283B3838AE090E0A0E0AF
:1005F000B0E084839583A683B7838CE0EBE0F3E0DF
:10060000A7EFB2E001900D928A95E1F788E0E3E070
:10061000F3E0AFEEB2E001900D928A95E1F7089514
:10062000CF92DF92EF92FF926B017C01CA01B90178
:1006300090580E948F0A9B01AC0160E070E080E856
:100640009FE30E94A80920E030E040EA50E40E94C5
:10065000F10BA70196010E94F10BFF90EF90DF9044
:10066000CF9008954F925F926F927F928F929F9258
:10067000AF92BF92CF92DF92EF92FF92CF93DF9330
:1006800000D000D0CDB7DEB780911F03882309F4D6
:1006900005C10E94E706C0902403D0902503E09096
:1006A0002603F09027039B01AC012C193D094E094C
:1006B0005F0969017A01209328033093290340934D
:1006C0002A0350932B038091030390910403A0917C
:1006D0000503B091060389839A83AB83BC83821799
:1006E0009307A407B50760F480E090E0A0E8BFE3BB
:1006F0008093EB029093EC02A093ED02B093EE0294
:100700008090EB029090EC02A090ED02B090EE028F
:100710002091DF023091E0024091E1025091E2022B
:10072000C501B4010E94A8092B013C0120E030E082
:1007300048EC52E40E94760B18164CF04092E70207
:100740005092E8026092E9027092EA020CC080E0E6
:1007500090E0A8ECB2E48093E7029093E802A093C3
:10076000E902B093EA02C701B60129813A814B81BF
:100770005C81621B730B840B950B0E94C10A20E005
:1007800030E04AE754E40E94150A2B013C019B012A
:10079000AC01C501B4010E9410036093E3027093A1
:1007A000E4028093E5029093E6026091E702709183
:1007B000E8028091E9029091EA02A30192010E946D
:1007C00010036093DF027093E0028093E102909344
:1007D000E2022091070330910803409109035091F0
:1007E0000A03C701B6010E948609672B682B692B93
:1007F00009F054C066E972E08CE293E00E94F808C8
:100800004091EB025091EC026091ED027091EE028A
:1008100022E030E08CE293E00E94AF086BE972E0E6
:100820008CE293E00E94F8086EE972E08CE293E0BB
:100830000E94F8084091E3025091E4026091E502C1
:100840007091E60222E030E08CE293E00E94AF0873
:100850006BE972E08CE293E00E94F80862EA72E0D1
:100860008CE293E00E94F8084091DF025091E00290
:100870006091E1027091E20222E030E08CE293E0CC
:100880000E94AF086BE972E08CE293E00E94F808E6
:1008900067EA72E08CE293E00E94E4088CE293E065
:1008A0000E943B05892B09F46DC08CE293E00E9405
:1008B000190567E173E00E94DF01892B09F462C02A
:1008C00080911703909118038130910501F1BCF4D8
:1008D000892B09F057C00F900F900F900F90DF9168
:1008E000CF91FF90EF90DF90CF90BF90AF909F900F
:1008F0008F907F906F905F904F900C94AF008330FB
:100900009105F9F00497F1F510921F033BC06FEECB
:1009100072E08091190390911A030F900F900F903D
:100920000F90DF91CF91FF90EF90DF90CF90BF902D
:10093000AF909F908F907F906F905F904F900C94AE
:10094000060180911F0381111DC00E94E70660937C
:10095000240370932503809326039093270310921A
:10096000EB021092EC021092ED021092EE02109245
:10097000E3021092E4021092E5021092E60281E096
:1009800080931F030F900F900F900F90DF91CF91E6
:10099000FF90EF90DF90CF90BF90AF909F908F909F
:1009A0007F906F905F904F900895DC01ED91FC91E6
:1009B0000190F081E02D0994CF92DF92EF92FF92A7
:1009C0000F931F93CF93DF936C017A018B01C0E0EB
:1009D000D0E0CE15DF0581F0D8016D918D01D601F3
:1009E000ED91FC910190F081E02DC6010995892BD4
:1009F00011F02196EECF7E01C701DF91CF911F91BB
:100A00000F91FF90EF90DF90CF900895089580E0D0
:100A100090E00895FC01538D448D252F30E0842F04
:100A200090E0821B930B541710F0CF960895019716
:100A30000895FC01918D828D981761F0828DDF0100
:100A4000A80FB11D5D968C91928D9F5F9F73928FC1
:100A500090E008958FEF9FEF0895FC01918D828DB6
:100A6000981731F0828DE80FF11D858D90E0089583
:100A70008FEF9FEF0895FC01918D228D892F90E0DB
:100A8000805C9F4F821B91098F73992708958CE298
:100A900093E00E943B0521E0892B09F420E0822F9E
:100AA0000895FC01848DDF01A80FB11DA35ABF4F2B
:100AB0002C91848D90E001968F739927848FA6895D
:100AC000B7892C93A089B1898C91837080648C93B1
:100AD000938D848D981306C00288F389E02D808160
:100AE0008F7D80830895EF92FF920F931F93CF9392
:100AF000DF93EC0181E0888F9B8D8C8D981305C06E
:100B0000E889F989808185FD26C0F62E0B8D10E0DD
:100B10000F5F1F4F0F731127E02E8C8DE8120CC052
:100B20000FB607FCFACFE889F989808185FFF5CFF8
:100B3000CE010E945105F1CF8B8DFE01E80FF11D12
:100B4000E35AFF4FF0829FB7F8940B8FEA89FB8935
:100B5000808180620AC09FB7F894EE89FF89608324
:100B6000E889F98980818370806480839FBF81E0F8
:100B700090E0DF91CF911F910F91FF90EF9008953A
:100B8000CF93DF93EC01888D8823C9F0EA89FB8934
:100B9000808185FD05C0A889B9898C9186FD0FC02B
:100BA0000FB607FCF5CF808185FFF2CFA889B98900
:100BB0008C9185FFEDCFCE010E945105E7CFDF91EB
:100BC000CF91089580E090E0892B29F00E9447059D
:100BD00081110C94000008950E949F0E1F920F92A5
:100BE0000FB60F9211242F933F934F935F936F9300
:100BF0007F938F939F93AF93BF93EF93FF938CE279
:100C000093E00E945105FF91EF91BF91AF919F91A9
:100C10008F917F916F915F914F913F912F910F90A5
:100C20000FBE0F901F9018951F920F920FB60F9244
:100C300011242F938F939F93EF93FF93E0913C03A5
:100C4000F0913D038081E0914203F091430382FDE6
:100C500012C09081809145038F5F8F73209146036E
:100C6000821751F0E0914503F0E0E45DFC4F958F71
:100C70008093450301C08081FF91EF919F918F91F7
:100C80002F910F900FBE0F901F901895CF92DF926B
:100C9000EF92FF921F93CF93DF93EC016A017B01E8
:100CA000122FE889F98982E080834115514E610550
:100CB0007105B1F060E079E08DE390E0A701960165
:100CC0000E948609DA01C9010197A109B109B69507
:100CD000A795979587959C01211580E13807A8F085
:100CE000E889F989108260E874E88EE190E0A70154
:100CF00096010E948609DA01C9010197A109B1098B
:100D0000B695A795979587959C01EC85FD853083D1
:100D1000EE85FF852083188EEC89FD891083EA8992
:100D2000FB89808180618083EA89FB89808188607A
:100D30008083EA89FB89808180688083EA89FB89D6
:100D400080818F7D8083DF91CF911F91FF90EF9005
:100D5000DF90CF900895CF93DF9390E0FC01ED50AA
:100D6000FF4F2491FC01E152FF4F8491882361F1F0
:100D700090E0880F991FFC01EB52FF4FC591D49171
:100D8000FC01E553FF4FA591B491611109C09FB7D4
:100D9000F8948881209582238883EC912E230BC0C0
:100DA000623061F49FB7F8948881322F30958323A5
:100DB0008883EC912E2B2C939FBF06C08FB7F8949D
:100DC000E8812E2B28838FBFDF91CF9108952FB715
:100DD000F8946091CE037091CF038091D0039091ED
:100DE000D1032FBF08951F920F920FB60F921124B7
:100DF0002F933F938F939F93AF93BF938091CE0395
:100E00009091CF03A091D003B091D1033091CD0345
:100E100023E0230F2D3720F40196A11DB11D05C03D
:100E200026E8230F0296A11DB11D2093CD038093C8
:100E3000CE039093CF03A093D003B093D1038091BE
:100E4000C9039091CA03A091CB03B091CC03019642
:100E5000A11DB11D8093C9039093CA03A093CB0336
:100E6000B093CC03BF91AF919F918F913F912F9100
:100E70000F900FBE0F901F9018958F929F92AF9278
:100E8000BF92EF92FF920F931F93CF93DF93CDB753
:100E9000DEB7A1970FB6F894DEBF0FBECDBF7C01C1
:100EA000FA01CB0119A2223008F42AE08E010F5D6D
:100EB0001F4F822E912CA12CB12CBF01A5019401B2
:100EC0000E948609F901CA01015011096A3014F41F
:100ED000605D01C0695CD8016C93232B242B252B0A
:100EE00061F7B801C7010E94FA08A1960FB6F894FD
:100EF000DEBF0FBECDBFDF91CF911F910F91FF904D
:100F0000EF90BF90AF909F908F900895CF92DF9217
:100F1000EF92FF920F931F93CF93DF9341155105EB
:100F200079F4DC01ED91FC910190F081E02DDF91ED
:100F3000CF911F910F91FF90EF90DF90CF90099488
:100F40006B01770FEE08FF084A305105F9F4F7FE00
:100F50001BC0EC016DE20E94D5048C01442755278B
:100F6000BA014C195D096E097F092AE0CE010E9481
:100F70003D07800F911FDF91CF911F910F91FF903F
:100F8000EF90DF90CF9008952AE001C0242FB701A1
:100F9000A601DF91CF911F910F91FF90EF90DF900D
:100FA000CF900C943D077F928F929F92AF92BF9209
:100FB000CF92DF92EF92FF920F931F93CF93DF9325
:100FC0008C016A017B01722E9A01AB01C701B60147
:100FD0000E949A0E882319F06AEA72E027C046013F
:100FE0005701E894B7F82FEF3FEF4FE75FE7C501F0
:100FF000B4010E949A0E81110DC02FEF3FEF4FE711
:101000005FE7C501B4010E940C0E18161CF46EEACD
:1010100072E00CC02FEF3FEF4FE75FE4C701B6016E
:101020000E94760B181694F462EB72E0C801DF910F
:10103000CF911F910F91FF90EF90DF90CF90BF90D5
:10104000AF909F908F907F900C94FA082FEF3FEF16
:101050004FE75FECC701B6010E940C0E87FDE4CF9D
:1010600020E030E0A901C701B6010E940C0E87FF05
:101070000AC06DE2C8010E94D504EC01F7FAF094B1
:10108000F7F8F09402C0C0E0D0E0B12C60E070E06E
:1010900080E09FE37B1441F020E030E040E251E447
:1010A0000E94150AB394F6CFA70196010E94A909E0
:1010B0006B017C010E946B0E4B015C012AE0AB01CD
:1010C000BC01C8010E943D07C80FD91F7720C1F19C
:1010D000C501B4010E94C10A9B01AC01C701B60160
:1010E0000E94A8096B017C016EE2C8010E94D50430
:1010F000C80FD91F20E030E040E251E4C701B6013B
:101100000E94F10B4B015C010E946B0E6B01E12C04
:10111000F12C2AE0B701A601C8010E943D07C80FC3
:10112000D91FC701B6010E94C10A9B01AC01C501CC
:10113000B4010E94A8096B017C017A947110DACF86
:10114000CE01DF91CF911F910F91FF90EF90DF9033
:10115000CF90BF90AF909F908F907F9008950C9408
:10116000D3070F931F93CF93DF93EC010E94D30714
:101170008C0166EB72E0CE010E94FA08800F911F8D
:10118000DF91CF911F910F9108950F931F93CF93EC
:10119000DF93EC012115310541F4E881F9810190DB
:1011A000F081E02D642F099502C00E943D078C015B
:1011B00066EB72E0CE010E94FA08800F911FDF916A
:1011C000CF911F910F9108950F931F93CF93DF93AA
:1011D000EC010E94FA088C0166EB72E0CE010E94DD
:1011E000FA08800F911FDF91CF911F910F91089501
:1011F0000C94FA086115710579F0FB01019000204B
:10120000E9F73197AF01461B570BDC01ED91FC91DB
:101210000280F381E02D099480E090E008957894B5
:1012200084B5826084BD84B5816084BD85B58260EB
:1012300085BD85B5816085BD80916E00816080939C
:101240006E00109281008091810082608093810005
:101250008091810081608093810080918000816015
:10126000809380008091B10084608093B100809170
:10127000B00081608093B00080917A008460809398
:101280007A0080917A00826080937A0080917A005F
:10129000816080937A0080917A00806880937A00E0
:1012A0001092C1000E94CC020E9432030E94E2050B
:1012B000FBCFECE2F3E01382128288EE93E0A0E031
:1012C000B0E084839583A683B7838EE191E0918318
:1012D000808385EC90E09587848784EC90E0978705
:1012E000868780EC90E0918B808B81EC90E0938BF3
:1012F000828B82EC90E0958B848B86EC90E0978BD0
:10130000868B118E128E138E148E0895A1E21A2EE2
:10131000AA1BBB1BFD010DC0AA1FBB1FEE1FFF1F99
:10132000A217B307E407F50720F0A21BB30BE40BE9
:10133000F50B661F771F881F991F1A9469F7609530
:101340007095809590959B01AC01BD01CF010895EA
:101350005058BB27AA270E94C0090C943C0B0E943E
:101360002E0B38F00E94350B20F039F49F3F19F412
:1013700026F40C94040B0EF4E095E7FB0C94FE0AA3
:10138000E92F0E944D0B58F3BA17620773078407C1
:10139000950720F079F4A6F50C946F0B0EF4E09508
:1013A0000B2EBA2FA02D0B01B90190010C01CA011F
:1013B000A0011124FF27591B99F0593F50F4503ECA
:1013C00068F11A16F040A22F232F342F4427585FBC
:1013D000F3CF469537952795A795F0405395C9F7D4
:1013E0007EF41F16BA0B620B730B840BBAF091508C
:1013F000A1F0FF0FBB1F661F771F881FC2F70EC02B
:10140000BA0F621F731F841F48F4879577956795FD
:10141000B795F7959E3F08F0B0CF9395880F08F0E9
:101420009927EE0F9795879508950E94290A0C94A5
:101430003C0B0E94350B58F00E942E0B40F029F413
:101440005F3F29F00C94FE0A51110C94700B0C9420
:10145000040B0E944D0B68F39923B1F3552391F3CC
:10146000951B550BBB27AA2762177307840738F013
:101470009F5F5F4F220F331F441FAA1FA9F335D070
:101480000E2E3AF0E0E832D091505040E695001C24
:10149000CAF72BD0FE2F29D0660F771F881FBB1FDE
:1014A000261737074807AB07B0E809F0BB0B802DBC
:1014B000BF01FF2793585F4F3AF09E3F510578F0E8
:1014C0000C94FE0A0C94700B5F3FE4F3983ED4F347
:1014D000869577956795B795F7959F5FC9F7880FBC
:1014E000911D9695879597F90895E1E0660F771F0E
:1014F000881FBB1F621773078407BA0720F0621B9F
:10150000730B840BBA0BEE1F88F7E095089529F44E
:1015100016F00C94FE0A0C946F0B0C94040B0E94B2
:10152000550BA8F39638A0F707F80F92E8942BE331
:101530003AEA48EB5FE70E94070C0F920F920F9276
:101540004DB75EB70F920E94BD0BE8E6F0E00E9437
:10155000070B4F915F91EF91FF91E595EE1FFF1FF4
:1015600049F0FE57E0684427EE0F441FFA95E1F773
:101570004195550B0E94870B0F9007FE0C947B0B37
:101580000895E89409C097FB3EF490958095709576
:1015900061957F4F8F4F9F4F9923A9F0F92F96E9BF
:1015A000BB279395F695879577956795B795F11134
:1015B000F8CFFAF4BB0F11F460FF1BC06F5F7F4FD1
:1015C0008F4F9F4F16C0882311F096E911C07723E3
:1015D00021F09EE8872F762F05C0662371F096E8EC
:1015E000862F70E060E02AF09A95660F771F881FBB
:1015F000DAF7880F9695879597F9089597F99F6779
:1016000080E870E060E008959FEF80EC0895DF933C
:10161000CF931F930F93FF92EF92DF927B018C0188
:10162000689406C0DA2EEF010E94040CFE01E894D3
:10163000A5912591359145915591A6F3EF010E9411
:10164000C009FE019701A801DA9469F7DF90EF90D5
:10165000FF900F911F91CF91DF91089500240A947C
:101660001616170618060906089500240A9412167D
:101670001306140605060895092E0394000C11F4B0
:10168000882352F0BB0F40F4BF2B11F460FF04C05D
:101690006F5F7F4F8F4F9F4F089557FD9058440FB6
:1016A000551F59F05F3F71F04795880F97FB991FC1
:1016B00061F09F3F79F0879508951216130614067E
:1016C000551FF2CF4695F1DF08C01616170618060B
:1016D000991FF1CF86957105610508940895E894E6
:1016E000BB2766277727CB0197F908950E945E0CE8
:1016F00008F48FEF08959B01AC0160E070E080E892
:101700009FE30C94150A0C94FE0A0C94820C0E9420
:10171000550BD8F39923C9F3940F511DA3F391509E
:10172000504094F059F0882332F0660F771F881FDD
:1017300091505040C1F79E3F51052CF7880F911DE5
:101740009695879597F908955F3FACF0983E9CF089
:10175000BB27869577956795B79508F4B160939503
:10176000C1F7BB0F58F711F460FFE8CF6F5F7F4FF1
:101770008F4F9F4FE3CF0C94700BFA01DC01AA0F3F
:10178000BB1F9B01AC01BF5728F4222733274427F6
:10179000507820C0B75190F4AB2F00244695379570
:1017A0002795011CA395D2F3002071F0220F331F5F
:1017B000441FB395DAF30ED00C94A809613071057B
:1017C000A0E88A07B94630F49B01AC016627772769
:1017D00088279078309621F0208331834283538389
:1017E00008950E94040C0C943C0B0E942E0B38F0C0
:1017F0000E94350B20F0952311F00C94FE0A0C94F6
:10180000040B11240C94700B0E944D0B70F3959FE8
:10181000C1F3950F50E0551F629FF001729FBB27E7
:10182000F00DB11D639FAA27F00DB11DAA1F649F83
:101830006627B00DA11D661F829F2227B00DA11D36
:10184000621F739FB00DA11D621F839FA00D611DBC
:10185000221F749F3327A00D611D231F849F600DDD
:10186000211D822F762F6A2F11249F5750409AF006
:10187000F1F088234AF0EE0FFF1FBB1F661F771F92
:10188000881F91505040A9F79E3F510580F00C945D
:10189000FE0A0C94700B5F3FE4F3983ED4F38695F8
:1018A00077956795B795F795E7959F5FC1F7FE2BFD
:1018B000880F911D9695879597F90895990F0008BF
:1018C000550FAA0BE0E8FEEF16161706E807F90712
:1018D000C0F012161306E407F50798F0621B730BAD
:1018E000840B950B39F40A2661F0232B242B252B2E
:1018F00021F408950A2609F4A140A6958FEF811DD1
:10190000811D08959F3F31F0915020F48795779580
:101910006795B795880F911D9695879597F90895C6
:10192000662777270C949D0CFB01DC018D910190BB
:1019300080190110D9F3990B0895A0E0B0E0E3EA13
:10194000FCE00C94250EEC016B016115710519F09A
:10195000FB01918380837E01FFEFEF1AFF0A08816C
:10196000802F90E00E94EB0D892B11F0E701F3CF5F
:101970000D3239F47E0182E0E80EF11C098111E09C
:1019800008C00B3229F47E0192E0E90EF11C0981B6
:1019900010E0E701219743E050E068E970E0CE01F4
:1019A0000E94F40D892BC1F4239645E050E063E9D1
:1019B00070E0CE010E94F40D892B09F42596C11424
:1019C000D10419F0F601D183C0831111F6C060E093
:1019D00070E080E89FE7FAC043E050E060E970E023
:1019E000CE010E94F40D892B59F4C114D10409F4DD
:1019F000E9C0F2E0EF0EF11CF601F182E082E2C0F4
:101A000020E030E0A901C0E0D0E0F70180EDA82E91
:101A1000A00E89E08A1530F1912F9260B92E812FA6
:101A2000887012FF04C0811124C0219622C0811148
:101A30002197A5E0B0E00E94140EDC01CB01880FD5
:101A4000991FAA1FBB1F9C01AD012A0D311D411D0D
:101A5000511D283989E93807480789E1580748F0B6
:101A6000166006C09EEFA9120AC013FD40C01860A0
:101A7000B12E8FEFE81AF80A00811B2DC6CF802FF8
:101A80008F7D8534A1F580818D3211F4106106C0FF
:101A90008B3221F0319661E070E004C08181329692
:101AA00062E070E080538A3018F0E61BF70B1FC02D
:101AB00060E070E060389CE079075CF4DB01AA0F1D
:101AC000BB1FAA0FBB1F6A0F7B1F660F771F680F14
:101AD000711D3196DF0111978C9180538A3050F33C
:101AE00014FF03C0719561957109C60FD71F11FFCF
:101AF00008C0C114D10429F0CF010197F6019183E8
:101B00008083CA01B9010E94C10A212F23702330AA
:101B100019F04B015C0106C04B015C01B7FAB094AF
:101B2000B7F8B09420E030E0A901C501B4010E94EB
:101B30000C0E882309F43EC0D7FF06C0D195C1958D
:101B4000D1090FEA10E002C007EC10E06801F8E1EB
:101B5000CF1AD10890E2E92EF12CCE15DF0574F0F2
:101B6000F8012591359145915491C501B4010E9428
:101B7000F10B4B015C01CE19DF09EFCF04501109C5
:101B8000F594E7940C151D0541F78A2D880F8B2DD0
:101B9000881F8F3F49F020E030E0A901C501B40162
:101BA0000E940C0E811106C082E290E09093D30354
:101BB0008093D203C501B40109C060E070E080E801
:101BC0009FEF04C060E070E080EC9FE7CDB7DEB728
:101BD000ECE00C94410E91110C94110E803219F02E
:101BE00089508550C8F70895FB01DC0141505040F1
:101BF00088F08D9181341CF08B350CF4805E6591FA
:101C000061341CF06B350CF4605E861B611171F35E
:101C1000990B0895881BFCCF0E945E0C08F481E0AC
:101C200008959927882708950E94560EA59F900D24
:101C3000B49F900DA49F800D911D112408952F92A3
:101C40003F924F925F926F927F928F929F92AF924C
:101C5000BF92CF92DF92EF92FF920F931F93CF9399
:101C6000DF93CDB7DEB7CA1BDB0B0FB6F894DEBF30
:101C70000FBECDBF09942A88398848885F846E8456
:101C80007D848C849B84AA84B984C884DF80EE80A0
:101C9000FD800C811B81AA81B981CE0FD11D0FB6A9
:101CA000F894DEBF0FBECDBFED010895A29FB00135
:101CB000B39FC001A39F700D811D1124911DB29F80
:101CC000700D811D1124911D0895EE0FFF1F0590C9
:101CD000F491E02D09940E94550B88F09F5798F0DD
:101CE000B92F9927B751B0F0E1F0660F771F881F21
:101CF000991F1AF0BA95C9F714C0B13091F00E943B
:101D00006F0BB1E008950C946F0B672F782F882725
:101D1000B85F39F0B93FCCF3869577956795B39561
:101D2000D9F73EF490958095709561957F4F8F4FD0
:101D30009F4F08950E945E0C880B990B089581E0D7
:0C1D400090E0F8940C94A40EF894FFCFEF
:101D4C007E02820286028A028E0292028002940233
:101D5C008C02B00210270000E8030000000073059D
:101D6C00DC040A05C0053B0519052D052A2A2A2A7B
:101D7C002A2A2A2A2A2A20434F4D414E444F5320C7
:101D8C002A2A2A2A2A2A2A2A2A2A003F202D2041B6
:101D9C007975646100723C706172616D3E202D201A
:101DAC004573637269626520706172C3A16D65745D
:101DBC00726F00773C706172616D3E202D204C6516
:101DCC006520706172C3A16D6574726F0069202DFE
:101DDC0020496E6963696F0066202D2046696E008C
:101DEC000A0D2A2A2A2A2A2A2A2A2A2A2050415229
:101DFC00414D4554524F53202A2A2A2A2A2A2A2A4C
:101E0C002A2A006B5F702D50726F706F7263696F4E
:101E1C006E616C006B5F692D496E74656772616CE5
:101E2C00006B5F642D44657269766174697661003C
:101E3C007065722D506572696F646F206465206DDA
:101E4C007565737472656F286D73290064656C2DEC
:101E5C005265747261736F2064656C206573636185
:101E6C006C6F6E00616D702D416D706C6974756472
:101E7C002064656C20657363616C6F6E002A2A2A7E
:101E8C002A2A2A2A2A2A2A2A2A2A2A2A2A2A2A2AA6
:101E9C002A00506572696F646F3D005265746172FF
:101EAC00646F3D006B703D006B693D006B643D00E1
:101EBC004E41434B0A0D0041434B2E2E2E007065B4
:101ECC00720064656C006B5F70006B5F69006B5F28
:101EDC0064003F00770073703A2000202000593ACC
:101EEC00200079323A20007554006E616E00696EE4
:0A1EFC0066006F7666000D0A000014
:00000001FF
