:100000000C9471000C9499000C9499000C94990034
:100010000C9499000C9499000C9499000C949900FC
:100020000C9499000C9499000C9499000C949900EC
:100030000C9499000C9499000C9499000C949900DC
:100040000C94A2050C9499000C94C3040C949D0488
:100050000C9499000C9499000C9499000C949900BC
:100060000C9499000C9499004E414E494E495459B4
:10007000494E46CDCCCC3D0AD7233C17B7D1387773
:10008000CC2B329595E6241FB14F0A000020410089
:1000900000C84200401C4620BCBE4CCA1B0E5AAED3
:1000A000C59D7400000000250028002B0000000002
:1000B00000240027002A00040404040404040402A9
:1000C00002020202020303030303030102040810F5
:1000D00020408001020408102001020408102000C2
:1000E000AA0711241FBECFEFD8E0DEBFCDBF12E0BC
:1000F000A0E0B1E0E4E2F8E102C005900D92AA3E72
:10010000B107D9F723E0AAEEB2E001C01D92AF3EDD
:10011000B207E1F710E0C1E7D0E004C02197FE018B
:100120000E94ED0AC037D107C9F70E9460070C94FE
:10013000100C0C9400006CE271E087E493E00E94E4
:1001400035076BE471E087E493E00E94350765E5CD
:1001500071E087E493E00E94350763E771E087E48C
:1001600093E00E9435076DE871E087E493E00E9418
:10017000350768E971E087E493E00E94350760EA9B
:1001800071E087E493E00E94350763EC71E087E457
:1001900093E00E94350764ED71E087E493E00E94EC
:1001A000350761EE71E087E493E00E94350760EF68
:1001B00071E087E493E00E9435076CE072E087E429
:1001C00093E00E94350764E272E087E493E00E94C6
:1001D00035076DE372E087E493E00E94350781E024
:1001E00090E00895CF93DF93EB018230910509F4FD
:1001F0005CC084F40097C1F0019709F08DC062E5FE
:1002000072E087E493E00E944B074C815D816E8130
:100210007F8155C08430910509F463C00CF456C049
:10022000059709F469C078C062E572E087E493E05D
:100230000E944B074C815D816E817F812AE030E016
:1002400087E493E00E9416076BE572E087E493E091
:100250000E944B07488159816A817B812AE030E006
:1002600087E493E00E94160764E672E087E493E077
:100270000E944B07488559856A857B852AE030E0D6
:1002800087E493E00E94350668E672E087E493E035
:100290000E944B074C855D856E857F852AE030E0A6
:1002A00087E493E00E94350627C06BE572E087E49F
:1002B00093E00E944B07488159816A817B812AE043
:1002C00030E087E493E00E94160726C064E672E0FF
:1002D00087E493E00E944B07488559856A857B85B2
:1002E00015C068E672E087E493E00E944B074C85F6
:1002F0005D856E857F850AC06CE672E087E493E0D9
:100300000E944B07488959896A897B892AE030E035
:1003100087E493E00E94350681E090E0DF91CF9181
:100320000895AF92BF92CF92DF92EF92FF920F9318
:100330001F93CF93DF937B016A018C01C0E0D0E073
:10034000CE15DF05CCF45801F801619171918F0150
:1003500087E493E00E9449076BED72E087E493E045
:100360000E944B07B601F501808191810E94DB0755
:10037000892B29F02196E4CF8FEF9FEF01C0CE01AA
:10038000DF91CF911F910F91FF90EF90DF90CF9071
:10039000BF90AF900895FF920F931F93CF93DF9379
:1003A000F82E8B0180910D0390910E0385319105FC
:1003B0008CF01092F40210920A031092090310922A
:1003C0000E0310920D0360E772E087E493E00E9451
:1003D0004B07C2C0C0910903D0910A03C130D105B7
:1003E000C1F1C230D10509F475C0209709F0B4C03D
:1003F000F092F4021092F50244EF52E065E070E0F2
:100400008AE091E00E949101D8018D939C9301961E
:1004100009F4A4C067E772E087E493E00E944B0709
:1004200081E090E090930A0380930903E0910D032B
:10043000F0910E03EC50FD4FF08210920E031092DB
:100440000D03F8011382128214821582168217821C
:1004500085C0FC01EC50FD4FF082BDE3FB121EC0D5
:10046000DB012D913C912130310571F5108244EF73
:1004700052E065E070E080E091E00E949101019619
:10048000F8019383828382E090E090930A03809343
:10049000090310920C0310920B035EC02BE3F212BF
:1004A00013C0DB012D913C91232B71F4108244EF9A
:1004B00052E065E070E080E091E00E9491010196D9
:1004C000F801938382832BC0019690930E0380934F
:1004D0000D0342C0FC01EC50FD4FF0820196909359
:1004E0000E0380930D03FBE3FF1671F080910B0365
:1004F00090910C03FC01E651FD4FF0820196909320
:100500000C0380930B0328C08AEE92E00E94D70769
:10051000D80114966D937D938D939C9317976BE9F7
:1005200072E087E493E00E944B0764EF72E087E497
:1005300093E00E9435071092F40210920A03109281
:10054000090310920E0310920D0310920C031092E7
:100550000B03C1E0D0E002C0C0E0D0E0CE01DF91EB
:10056000CF911F910F91FF90089561E08DE00E945F
:100570005A0526E040E855E260E070E087E493E049
:100580000E94F50443E150E06AEB72E087E493E0F7
:100590000E948B03EBE2F3E080E090E0A0E2B1E4A4
:1005A00080839183A283B38384839583A683B78357
:1005B00080879187A287B387E3E2F3E088EE93E038
:1005C000A0E0B0E080839183A283B38384E690E0CF
:1005D000A0E0B0E084839583A683B7838CE0EBE250
:1005E000F3E0A7E1B3E001900D928A95E1F788E08E
:1005F000E3E2F3E0AFE0B3E001900D928A95E1F71A
:100600000895CF92DF92EF92FF920F931F930E9473
:10061000960520911801309119016901330FEE08F8
:10062000FF0800914303109144032091450330914A
:1006300046030C0D1D1D2E1D3F1D0617170728070D
:100640003907A0F50E94960500913F0310914003E1
:100650002091410330914203DC01CB01801B910BBF
:10066000A20BB30B8093430390934403A0934503E1
:10067000B0934603009114011091150120911601C9
:100680003091170180179107A207B30710F460E3B8
:1006900001C061E387E493E00E9422044FE050E050
:1006A0006EEC72E087E493E00E948B0387E493E0B2
:1006B0000E94EA03892B41F187E493E00E94C8037A
:1006C00067E373E00E94CB01892BF1F0809137033F
:1006D00090913803009781F00197B1F46FE073E0D7
:1006E0008091390390913A031F910F91FF90EF9001
:1006F000DF90CF900C94F2001F910F91FF90EF903C
:10070000DF90CF900C949B001F910F91FF90EF9082
:10071000DF90CF900895CF92DF92EF92FF920F93E8
:100720001F93CF93DF936C017A018B01C0E0D0E07F
:10073000CE15DF0581F0D8016D918D01D601ED91C7
:10074000FC910190F081E02DC6010995892B11F0F3
:100750002196EECF7E01C701DF91CF911F910F91BE
:10076000FF90EF90DF90CF900895089580E090E0A3
:100770000895FC01538D448D252F30E0842F90E0A7
:10078000821B930B541710F0CF960895019708958C
:10079000FC01918D828D981761F0828DDF01A80F89
:1007A000B11D5D968C91928D9F5F9F73928F90E0AB
:1007B00008958FEF9FEF0895FC01918D828D98171A
:1007C00031F0828DE80FF11D858D90E008958FEF57
:1007D0009FEF0895FC01918D228D892F90E0805C20
:1007E0009F4F821B91098F739927089587E493E0A7
:1007F0000E94EA0321E0892B09F420E0822F08956A
:10080000FC01848DDF01A80FB11DA35ABF4F2C91AD
:10081000848D90E001968F739927848FA689B7897C
:100820002C93A089B1898C91837080648C93938D73
:10083000848D981306C00288F389E02D80818F7D16
:1008400080830895EF92FF920F931F93CF93DF93CE
:10085000EC0181E0888F9B8D8C8D981305C0E88911
:10086000F989808185FD26C0F62E0B8D10E00F5F83
:100870001F4F0F731127E02E8C8DE8120CC00FB69E
:1008800007FCFACFE889F989808185FFF5CFCE0191
:100890000E940004F1CF8B8DFE01E80FF11DE35A99
:1008A000FF4FF0829FB7F8940B8FEA89FB89808114
:1008B00080620AC09FB7F894EE89FF896083E88957
:1008C000F98980818370806480839FBF81E090E09C
:1008D000DF91CF911F910F91FF90EF900895CF93EB
:1008E000DF93EC01888D8823C9F0EA89FB89808138
:1008F00085FD05C0A889B9898C9186FD0FC00FB60A
:1009000007FCF5CF808185FFF2CFA889B9898C914A
:1009100085FFEDCFCE010E940004E7CFDF91CF919C
:10092000089580E090E0892B29F00E94F603811160
:100930000C94000008950E940B0C1F920F920FB6AA
:100940000F9211242F933F934F935F936F937F9355
:100950008F939F93AF93BF93EF93FF9387E493E0BD
:100960000E940004FF91EF91BF91AF919F918F91F1
:100970007F916F915F914F913F912F910F900FBE9B
:100980000F901F9018951F920F920FB60F9211247F
:100990002F938F939F93EF93FF93E0915703F091E1
:1009A00058038081E0915D03F0915E0382FD12C0E7
:1009B0009081809160038F5F8F7320916103821714
:1009C00051F0E0916003F0E0E95BFC4F958F80937C
:1009D000600301C08081FF91EF919F918F912F91D2
:1009E0000F900FBE0F901F901895CF92DF92EF924D
:1009F000FF921F93CF93DF93EC016A017B01122FCB
:100A0000E889F98982E080834115514E61057105BD
:100A1000B1F060E079E08DE390E0A70196010E94DB
:100A2000CB0ADA01C9010197A109B109B695A795C9
:100A3000979587959C01211580E13807A8F0E889F2
:100A4000F989108260E874E88EE190E0A7019601D0
:100A50000E94CB0ADA01C9010197A109B109B69533
:100A6000A795979587959C01EC85FD853083EE854C
:100A7000FF852083188EEC89FD891083EA89FB8924
:100A8000808180618083EA89FB898081886080839E
:100A9000EA89FB89808180688083EA89FB8980817B
:100AA0008F7D8083DF91CF911F91FF90EF90DF903A
:100AB000CF900895CF93DF9390E0FC01E553FF4F73
:100AC0002491FC01E954FF4F8491882361F190E067
:100AD000880F991FFC01E355FF4FC591D491FC018C
:100AE000ED55FF4FA591B491611109C09FB7F894DE
:100AF0008881209582238883EC912E230BC062305D
:100B000061F49FB7F8948881322F309583238883CE
:100B1000EC912E2B2C939FBF06C08FB7F894E881E1
:100B20002E2B28838FBFDF91CF9108952FB7F89494
:100B30006091E9037091EA038091EB039091EC03DB
:100B40002FBF08951F920F920FB60F9211242F936B
:100B50003F938F939F93AF93BF938091E9039091BD
:100B6000EA03A091EB03B091EC033091E80323E09A
:100B7000230F2D3720F40196A11DB11D05C026E8D5
:100B8000230F0296A11DB11D2093E8038093E90372
:100B90009093EA03A093EB03B093EC038091E403FA
:100BA0009091E503A091E603B091E7030196A11DA2
:100BB000B11D8093E4039093E503A093E603B09303
:100BC000E703BF91AF919F918F913F912F910F902C
:100BD0000FBE0F901F9018958F929F92AF92BF9269
:100BE000EF92FF920F931F93CF93DF93CDB7DEB7B2
:100BF000A1970FB6F894DEBF0FBECDBF7C01FA01FE
:100C0000CB0119A2223008F42AE08E010F5D1F4F9C
:100C1000822E912CA12CB12CBF01A50194010E9420
:100C2000CB0AF901CA01015011096A3014F4605D60
:100C300001C0695CD8016C93232B242B252B61F711
:100C4000B801C7010E944B07A1960FB6F894DEBF0A
:100C50000FBECDBFDF91CF911F910F91FF90EF900D
:100C6000BF90AF909F908F9008957F928F929F92A8
:100C7000AF92BF92CF92DF92EF92FF920F931F93AA
:100C8000CF93DF938C016A017B01722E9A01AB0135
:100C9000C701B6010E94060C882319F06EED72E0C0
:100CA00027C046015701E894B7F82FEF3FEF4FE711
:100CB0005FE7C501B4010E94060C81110DC02FEF42
:100CC0003FEF4FE75FE7C501B4010E9453091816D3
:100CD0001CF462EE72E00CC02FEF3FEF4FE75FE4D1
:100CE000C701B6010E94010C18163CF466EE72E0D2
:100CF000C8010E944B07EC0184C02FEF3FEF4FE784
:100D00005FECC701B6010E94530987FDEFCF20E0D9
:100D100030E0A901C701B6010E94530987FF0FC047
:100D2000D801ED91FC910190F081E02D6DE2C801B8
:100D30000995EC01F7FAF094F7F8F09402C0C0E0DE
:100D4000D0E0B12C60E070E080E09FE3B71440F4A5
:100D500020E030E040E251E40E94600BB394F6CF13
:100D6000A70196010E94F40A6B017C010E94D20B3C
:100D70004B015C012AE0AB01BC01C8010E94EC05FB
:100D8000C80FD91F7720E9F1C501B4010E945809A5
:100D90009B01AC01C701B6010E94F30A6B017C0103
:100DA000D801ED91FC910190F081E02D6EE2C80137
:100DB0000995C80FD91F20E030E040E251E4C70197
:100DC000B6010E94B9094B015C010E94D20B6B0174
:100DD000E12CF12C2AE0B701A601C8010E94EC0524
:100DE000C80FD91FC701B6010E9458099B01AC0169
:100DF000C501B4010E94F30A6B017C017A94711061
:100E0000DACF6BEC72E0C8010E944B078C0F9D1F7C
:100E1000DF91CF911F910F91FF90EF90DF90CF90D6
:100E2000BF90AF909F908F907F9008950F931F93E6
:100E3000CF93DF93EC012115310541F4E881F9816D
:100E40000190F081E02D642F099502C00E94EC050D
:100E50008C016BEC72E0CE010E944B07800F911F5A
:100E6000DF91CF911F910F9108950F931F93CF930F
:100E7000DF93EC010E944B078C016BEC72E0CE011A
:100E80000E944B07800F911FDF91CF911F910F910F
:100E900008950C944B076115710579F0FB010190E1
:100EA0000020E9F73197AF01461B570BDC01ED91AC
:100EB000FC910280F381E02D099480E090E0089598
:100EC000789484B5826084BD84B5816084BD85B525
:100ED000826085BD85B5816085BD80916E00816031
:100EE00080936E00109281008091810082608093D7
:100EF00081008091810081608093810080918000D9
:100F00008160809380008091B10084608093B10003
:100F10008091B00081608093B00080917A008460FD
:100F200080937A0080917A00826080937A00809129
:100F30007A00816080937A0080917A008068809343
:100F40007A001092C1000E94B5020E9401030E9423
:100F50009104FBCFE7E4F3E01382128288EE93E082
:100F6000A0E0B0E084839583A683B7838EE191E00F
:100F70009183808385EC90E09587848784EC90E072
:100F80009787868780EC90E0918B808B81EC90E056
:100F9000938B828B82EC90E0958B848B86EC90E037
:100FA000978B868B118E128E138E148E0895662762
:100FB00077270C94E407FB01DC018D9101908019E7
:100FC0000110D9F3990B0895A0E0B0E0EAEEF7E044
:100FD0000C948B0AEC016B016115710519F0FB0192
:100FE000918380837E01FFEFEF1AFF0A0881802F33
:100FF00090E00E943209892B11F0E701F3CF0D3206
:1010000039F47E0182E0E80EF11C098111E008C08C
:101010000B3229F47E0192E0E90EF11C098110E007
:10102000E701219743E050E060E770E0CE010E94C5
:101030003B09892BC1F4239645E050E06BE670E054
:10104000CE010E943B09892B09F42596C114D104D5
:1010500019F0F601D183C0831111F6C060E070E091
:1010600080E89FE7FAC043E050E068E670E0CE0118
:101070000E943B09892B59F4C114D10409F4E9C039
:10108000F2E0EF0EF11CF601F182E082E2C020E016
:1010900030E0A901C0E0D0E0F70180EDA82EA00E5D
:1010A00089E08A1530F1912F9260B92E812F8870D6
:1010B00012FF04C0811124C0219622C08111219702
:1010C000A5E0B0E00E947A0ADC01CB01880F991FED
:1010D000AA1FBB1F9C01AD012A0D311D411D511DD1
:1010E000283989E93807480789E1580748F0166028
:1010F00006C09EEFA9120AC013FD40C01860B12EB1
:101100008FEFE81AF80A00811B2DC6CF802F8F7D44
:101110008534A1F580818D3211F4106106C08B32C7
:1011200021F0319661E070E004C08181329662E086
:1011300070E080538A3018F0E61BF70B1FC060E0A8
:1011400070E060389CE079075CF4DB01AA0FBB1FFC
:10115000AA0FBB1F6A0F7B1F660F771F680F711DD9
:101160003196DF0111978C9180538A3050F314FF30
:1011700003C0719561957109C60FD71F11FF08C093
:10118000C114D10429F0CF010197F6019183808326
:10119000CA01B9010E945809212F2370233019F088
:1011A0004B015C0106C04B015C01B7FAB094B7F883
:1011B000B09420E030E0A901C501B4010E945309B8
:1011C000882309F43EC0D7FF06C0D195C195D10947
:1011D00007E810E002C00FE910E06801F8E1CF1A5B
:1011E000D10890E2E92EF12CCE15DF0574F0F8015C
:1011F0002591359145915491C501B4010E94B909D9
:101200004B015C01CE19DF09EFCF04501109F594B1
:10121000E7940C151D0541F78A2D880F8B2D881F2B
:101220008F3F49F020E030E0A901C501B4010E94E0
:101230005309811106C082E290E09093EE038093FF
:10124000ED03C501B40109C060E070E080E89FEFE4
:1012500004C060E070E080EC9FE7CDB7DEB7ECE063
:101260000C94A70A91110C94260A803219F0895027
:101270008550C8F70895FB01DC014150504088F0CB
:101280008D9181341CF08B350CF4805E6591613456
:101290001CF06B350CF4605E861B611171F3990BC9
:1012A0000895881BFCCF0E94950908F481E00895F9
:1012B000E89409C097FB3EF49095809570956195F0
:1012C0007F4F8F4F9F4F9923A9F0F92F96E9BB27A6
:1012D0009395F695879577956795B795F111F8CF22
:1012E000FAF4BB0F11F460FF1BC06F5F7F4F8F4F8D
:1012F0009F4F16C0882311F096E911C0772321F083
:101300009EE8872F762F05C0662371F096E8862F1A
:1013100070E060E02AF09A95660F771F881FDAF771
:10132000880F9695879597F90895990F0008550F9E
:10133000AA0BE0E8FEEF16161706E807F907C0F05B
:1013400012161306E407F50798F0621B730B840B63
:10135000950B39F40A2661F0232B242B252B21F43D
:1013600008950A2609F4A140A6958FEF811D811DDD
:1013700008950E94CC090C94400A0E94320A38F069
:101380000E94390A20F0952311F00C94290A0C943C
:101390002F0A11240C94740A0E94510A70F3959F2D
:1013A000C1F3950F50E0551F629FF001729FBB275C
:1013B000F00DB11D639FAA27F00DB11DAA1F649FF8
:1013C0006627B00DA11D661F829F2227B00DA11DAB
:1013D000621F739FB00DA11D621F839FA00D611D31
:1013E000221F749F3327A00D611D231F849F600D52
:1013F000211D822F762F6A2F11249F5750409AF07B
:10140000F1F088234AF0EE0FFF1FBB1F661F771F06
:10141000881F91505040A9F79E3F510580F00C94D1
:10142000290A0C94740A5F3FE4F3983ED4F386953E
:1014300077956795B795F795E7959F5FC1F7FE2B71
:10144000880F911D9695879597F908959927882774
:10145000089597F99F6780E870E060E008959FEF36
:1014600080EC089500240A9416161706180609063B
:10147000089500240A94121613061406050608950A
:10148000092E0394000C11F4882352F0BB0F40F492
:10149000BF2B11F460FF04C06F5F7F4F8F4F9F4FD2
:1014A000089557FD9058440F551F59F05F3F71F054
:1014B0004795880F97FB991F61F09F3F79F08795BB
:1014C0000895121613061406551FF2CF4695F1DF44
:1014D00008C0161617061806991FF1CF86957105D4
:1014E000610508940895E894BB2766277727CB0108
:1014F00097F908950E94BC0AA59F900DB49F900D86
:10150000A49F800D911D112408952F923F924F9218
:101510005F926F927F928F929F92AF92BF92CF9283
:10152000DF92EF92FF920F931F93CF93DF93CDB78C
:10153000DEB7CA1BDB0B0FB6F894DEBF0FBECDBF04
:1015400009942A88398848885F846E847D848C84D5
:101550009B84AA84B984C884DF80EE80FD800C81DE
:101560001B81AA81B981CE0FD11D0FB6F894DEBFC1
:101570000FBECDBFED010895A29FB001B39FC00182
:10158000A39F700D811D1124911DB29F700D811DAF
:101590001124911D0895A1E21A2EAA1BBB1BFD0167
:1015A0000DC0AA1FBB1FEE1FFF1FA217B307E40742
:1015B000F50720F0A21BB30BE40BF50B661F771F9A
:1015C000881F991F1A9469F760957095809590957A
:1015D0009B01AC01BD01CF010895EE0FFF1F0590E7
:1015E000F491E02D09945058BB27AA270E940B0BB9
:1015F0000C94400A0E94320A38F00E94390A20F006
:1016000039F49F3F19F426F40C942F0A0EF4E09558
:10161000E7FB0C94290AE92F0E94510A58F3BA17E4
:10162000620773078407950720F079F4A6F50C94F8
:10163000730A0EF4E0950B2EBA2FA02D0B01B90101
:1016400090010C01CA01A0011124FF27591B99F038
:10165000593F50F4503E68F11A16F040A22F232F44
:10166000342F4427585FF3CF469537952795A79594
:10167000F0405395C9F77EF41F16BA0B620B730B3B
:10168000840BBAF09150A1F0FF0FBB1F661F771FAC
:10169000881FC2F70EC0BA0F621F731F841F48F461
:1016A000879577956795B795F7959E3F08F0B0CFEA
:1016B0009395880F08F09927EE0F979587950895D1
:1016C0000E94740B0C94400A0E94390A58F00E9440
:1016D000320A40F029F45F3F29F00C94290A511195
:1016E0000C94740A0C942F0A0E94510A68F39923EF
:1016F000B1F3552391F3951B550BBB27AA2762170E
:101700007307840738F09F5F5F4F220F331F441F1A
:10171000AA1FA9F335D00E2E3AF0E0E832D091504E
:101720005040E695001CCAF72BD0FE2F29D0660F3B
:10173000771F881FBB1F261737074807AB07B0E87E
:1017400009F0BB0B802DBF01FF2793585F4F3AF084
:101750009E3F510578F00C94290A0C94740A5F3F5F
:10176000E4F3983ED4F3869577956795B795F7950A
:101770009F5FC9F7880F911D9695879597F90895F2
:10178000E1E0660F771F881FBB1F6217730784078E
:10179000BA0720F0621B730B840BBA0BEE1F88F79D
:1017A000E09508950E94590A88F09F5798F0B92F44
:1017B0009927B751B0F0E1F0660F771F881F991F86
:1017C0001AF0BA95C9F714C0B13091F00E94730AAB
:1017D000B1E008950C94730A672F782F8827B85FBB
:1017E00039F0B93FCCF3869577956795B395D9F7DE
:1017F0003EF490958095709561957F4F8F4F9F4FE8
:1018000008950E94950908F48FEF08950E949509A4
:10181000880B990B089581E090E0F8940C94100CDB
:04182000F894FFCF6A
:10182400A202A602AA02AE02B202B602A402B80240
:10183400B002E40210270000881300000000220414
:101844008B03B9036F04EA03C803DC032A2A2A2A98
:101854002A2A2A2A2A2A20434F4D414E444F5320F4
:101864002A2A2A2A2A2A2A2A2A2A003F202D2041E3
:101874007975646100723C706172616D3E202D2047
:101884004573637269626520706172C3A16D65748A
:10189400726F00773C706172616D3E202D204C6543
:1018A4006520706172C3A16D6574726F0069202D2B
:1018B40020496E6963696F0066202D2046696E00B9
:1018C4000A0D2A2A2A2A2A2A2A2A2A2A2050415256
:1018D400414D4554524F53202A2A2A2A2A2A2A2A79
:1018E4002A2A006B5F702D50726F706F7263696F7C
:1018F4006E616C006B5F692D496E74656772616C13
:10190400006B5F642D446572697661746976610069
:101914007065722D506572696F646F206465206D07
:101924007565737472656F286D73290064656C2D19
:101934005265747261736F2064656C2065736361B2
:101944006C6F6E00616D702D416D706C697475649F
:101954002064656C20657363616C6F6E002A2A2AAB
:101964002A2A2A2A2A2A2A2A2A2A2A2A2A2A2A2AD3
:101974002A00506572696F646F3D0052657461722C
:10198400646F3D006B703D006B693D006B643D000E
:101994004E41434B0A0D0053652068612072656314
:1019A400696269646F20756E20636F6D616E646F28
:1019B4002076C3A16C69646F0D0A0041434B2E2E3F
:1019C4002E007065720064656C006B5F70006B5F65
:1019D40069006B5F64003F007700496E6963696169
:1019E4006C697A616E646F2E2E2E2E0D0A0045737B
:1019F400746F79207669766F2E2E2E0A0D006E6133
:0A1A04006E00696E66006F766600E2
:00000001FF
